{
  "_format": "hh-sol-artifact-1",
  "contractName": "App",
  "sourceName": "contracts/app.sol",
  "abi": [
    {
      "anonymous": false,
      "inputs": [
        {
          "indexed": false,
          "internalType": "uint256",
          "name": "productId",
          "type": "uint256"
        },
        {
          "indexed": false,
          "internalType": "uint256",
          "name": "sellerId",
          "type": "uint256"
        }
      ],
      "name": "ProductCreated",
      "type": "event"
    },
    {
      "anonymous": false,
      "inputs": [
        {
          "indexed": false,
          "internalType": "uint256",
          "name": "newSellerId",
          "type": "uint256"
        }
      ],
      "name": "SellerChained",
      "type": "event"
    },
    {
      "anonymous": false,
      "inputs": [
        {
          "indexed": false,
          "internalType": "uint256",
          "name": "sellerId",
          "type": "uint256"
        }
      ],
      "name": "SellerCreated",
      "type": "event"
    },
    {
      "inputs": [
        {
          "internalType": "uint256",
          "name": "_productId",
          "type": "uint256"
        },
        {
          "internalType": "uint256",
          "name": "_newSellerId",
          "type": "uint256"
        }
      ],
      "name": "addSeller",
      "outputs": [],
      "stateMutability": "nonpayable",
      "type": "function"
    },
    {
      "inputs": [
        {
          "internalType": "uint256",
          "name": "_productId",
          "type": "uint256"
        }
      ],
      "name": "createProduct",
      "outputs": [],
      "stateMutability": "nonpayable",
      "type": "function"
    },
    {
      "inputs": [
        {
          "internalType": "uint256",
          "name": "_sellerId",
          "type": "uint256"
        }
      ],
      "name": "createSeller",
      "outputs": [],
      "stateMutability": "nonpayable",
      "type": "function"
    },
    {
      "inputs": [
        {
          "internalType": "uint256",
          "name": "_productId",
          "type": "uint256"
        }
      ],
      "name": "getProduct",
      "outputs": [
        {
          "components": [
            {
              "internalType": "uint256",
              "name": "productId",
              "type": "uint256"
            },
            {
              "internalType": "uint256[]",
              "name": "chain",
              "type": "uint256[]"
            }
          ],
          "internalType": "struct App.Product",
          "name": "",
          "type": "tuple"
        }
      ],
      "stateMutability": "view",
      "type": "function"
    },
    {
      "inputs": [
        {
          "internalType": "uint256",
          "name": "",
          "type": "uint256"
        }
      ],
      "name": "products",
      "outputs": [
        {
          "internalType": "uint256",
          "name": "productId",
          "type": "uint256"
        }
      ],
      "stateMutability": "view",
      "type": "function"
    }
  ],
  "bytecode": "0x608060405234801561001057600080fd5b50610eea806100206000396000f3fe608060405234801561001057600080fd5b50600436106100575760003560e01c80631b3fa3241461005c5780632a422e92146100785780637acc0b2014610094578063b9db15b4146100c4578063f5601e4b146100f4575b600080fd5b61007660048036038101906100719190610957565b610110565b005b610092600480360381019061008d9190610997565b61042b565b005b6100ae60048036038101906100a99190610997565b610698565b6040516100bb91906109d3565b60405180910390f35b6100de60048036038101906100d99190610997565b6106b6565b6040516100eb9190610ae9565b60405180910390f35b61010e60048036038101906101099190610997565b610744565b005b81816000806000848152602001908152602001600020600101805490500361016d576040517f08c379a000000000000000000000000000000000000000000000000000000000815260040161016490610b68565b60405180910390fd5b600073ffffffffffffffffffffffffffffffffffffffff166002600083815260200190815260200160002060009054906101000a900473ffffffffffffffffffffffffffffffffffffffff1673ffffffffffffffffffffffffffffffffffffffff160361020f576040517f08c379a000000000000000000000000000000000000000000000000000000000815260040161020690610bd4565b60405180910390fd5b600080600084815260200190815260200160002060010180549050905060008060008581526020019081526020016000206001016001836102509190610c23565b8154811061026157610260610c57565b5b906000526020600020015490503373ffffffffffffffffffffffffffffffffffffffff166002600083815260200190815260200160002060009054906101000a900473ffffffffffffffffffffffffffffffffffffffff1673ffffffffffffffffffffffffffffffffffffffff161461030f576040517f08c379a000000000000000000000000000000000000000000000000000000000815260040161030690610cf8565b60405180910390fd5b3373ffffffffffffffffffffffffffffffffffffffff166002600085815260200190815260200160002060009054906101000a900473ffffffffffffffffffffffffffffffffffffffff1673ffffffffffffffffffffffffffffffffffffffff16036103b0576040517f08c379a00000000000000000000000000000000000000000000000000000000081526004016103a790610d64565b60405180910390fd5b6000808781526020019081526020016000206001018590806001815401808255809150506001900390600052602060002001600090919091909150557f62d9e737a550b6d1bb2275de20e13abdbfbd149db8d0b4f3dfbc3e383273cd828560405161041b91906109d3565b60405180910390a1505050505050565b6000600160003373ffffffffffffffffffffffffffffffffffffffff1673ffffffffffffffffffffffffffffffffffffffff16815260200190815260200160002054036104ad576040517f08c379a00000000000000000000000000000000000000000000000000000000081526004016104a490610bd4565b60405180910390fd5b60008060008381526020019081526020016000206001018054905014610508576040517f08c379a00000000000000000000000000000000000000000000000000000000081526004016104ff90610dd0565b60405180910390fd5b6040518060400160405280828152602001600067ffffffffffffffff81111561053457610533610df0565b5b6040519080825280602002602001820160405280156105625781602001602082028036833780820191505090505b5081525060008083815260200190815260200160002060008201518160000155602082015181600101908051906020019061059e929190610898565b50905050600080828152602001908152602001600020600101600160003373ffffffffffffffffffffffffffffffffffffffff1673ffffffffffffffffffffffffffffffffffffffff1681526020019081526020016000205490806001815401808255809150506001900390600052602060002001600090919091909150557f2a60815e9d2622a909b3c2b731fa879a529c93b5fecdb1cfea183695707572cc81600160003373ffffffffffffffffffffffffffffffffffffffff1673ffffffffffffffffffffffffffffffffffffffff1681526020019081526020016000205460405161068d929190610e1f565b60405180910390a150565b60006020528060005260406000206000915090508060000154905081565b6106be6108e5565b600080838152602001908152602001600020604051806040016040529081600082015481526020016001820180548060200260200160405190810160405280929190818152602001828054801561073457602002820191906000526020600020905b815481526020019060010190808311610720575b5050505050815250509050919050565b806000600160003373ffffffffffffffffffffffffffffffffffffffff1673ffffffffffffffffffffffffffffffffffffffff16815260200190815260200160002054146107c7576040517f08c379a00000000000000000000000000000000000000000000000000000000081526004016107be90610e94565b60405180910390fd5b81600160003373ffffffffffffffffffffffffffffffffffffffff1673ffffffffffffffffffffffffffffffffffffffff16815260200190815260200160002081905550336002600084815260200190815260200160002060006101000a81548173ffffffffffffffffffffffffffffffffffffffff021916908373ffffffffffffffffffffffffffffffffffffffff1602179055507f9797ac7c8c4896711ab37cea82f65b6023e36e588eb78734503f514e989bdc328260405161088c91906109d3565b60405180910390a15050565b8280548282559060005260206000209081019282156108d4579160200282015b828111156108d35782518255916020019190600101906108b8565b5b5090506108e191906108ff565b5090565b604051806040016040528060008152602001606081525090565b5b80821115610918576000816000905550600101610900565b5090565b600080fd5b6000819050919050565b61093481610921565b811461093f57600080fd5b50565b6000813590506109518161092b565b92915050565b6000806040838503121561096e5761096d61091c565b5b600061097c85828601610942565b925050602061098d85828601610942565b9150509250929050565b6000602082840312156109ad576109ac61091c565b5b60006109bb84828501610942565b91505092915050565b6109cd81610921565b82525050565b60006020820190506109e860008301846109c4565b92915050565b6109f781610921565b82525050565b600081519050919050565b600082825260208201905092915050565b6000819050602082019050919050565b6000610a3583836109ee565b60208301905092915050565b6000602082019050919050565b6000610a59826109fd565b610a638185610a08565b9350610a6e83610a19565b8060005b83811015610a9f578151610a868882610a29565b9750610a9183610a41565b925050600181019050610a72565b5085935050505092915050565b6000604083016000830151610ac460008601826109ee565b5060208301518482036020860152610adc8282610a4e565b9150508091505092915050565b60006020820190508181036000830152610b038184610aac565b905092915050565b600082825260208201905092915050565b7f50726f6475637420646f65736e27742065786973747300000000000000000000600082015250565b6000610b52601683610b0b565b9150610b5d82610b1c565b602082019050919050565b60006020820190508181036000830152610b8181610b45565b9050919050565b7f4e6f2073656c6c65722065786973747300000000000000000000000000000000600082015250565b6000610bbe601083610b0b565b9150610bc982610b88565b602082019050919050565b60006020820190508181036000830152610bed81610bb1565b9050919050565b7f4e487b7100000000000000000000000000000000000000000000000000000000600052601160045260246000fd5b6000610c2e82610921565b9150610c3983610921565b9250828203905081811115610c5157610c50610bf4565b5b92915050565b7f4e487b7100000000000000000000000000000000000000000000000000000000600052603260045260246000fd5b7f4f6e6c7920746865206c6173742073656c6c65722063616e206164642061206e60008201527f65772073656c6c65720000000000000000000000000000000000000000000000602082015250565b6000610ce2602983610b0b565b9150610ced82610c86565b604082019050919050565b60006020820190508181036000830152610d1181610cd5565b9050919050565b7f43616e27742073656c6c20746f20796f757273656c6600000000000000000000600082015250565b6000610d4e601683610b0b565b9150610d5982610d18565b602082019050919050565b60006020820190508181036000830152610d7d81610d41565b9050919050565b7f50726f6475637420616c72656164792065786973747300000000000000000000600082015250565b6000610dba601683610b0b565b9150610dc582610d84565b602082019050919050565b60006020820190508181036000830152610de981610dad565b9050919050565b7f4e487b7100000000000000000000000000000000000000000000000000000000600052604160045260246000fd5b6000604082019050610e3460008301856109c4565b610e4160208301846109c4565b9392505050565b7f53656c6c657220616c7265616479206578697374730000000000000000000000600082015250565b6000610e7e601583610b0b565b9150610e8982610e48565b602082019050919050565b60006020820190508181036000830152610ead81610e71565b905091905056fea2646970667358221220b508ed037386ea88b854a664ec6fb2cb4783d4a8b5bb2ae07986bf9a0a55baf264736f6c63430008180033",
  "linkReferences": {},
  "deployedLinkReferences": {}
}